:0200000407FCF7
:10000000586BFC077105FC077905FC079105FC0797
:1000100000000000000000000000000000000000E0
:10002000000000000000000000000000A905FC071F
:100030000000000000000000AB05FC07AD05FC0758
:100040005B19FC07B719FC071D27F0074515FC07CE
:100050004D14FC07AF05FC079313FC07AF05FC0725
:10006000AF05FC07AF05FC072512FC072912FC07AA
:100070002D12FC073112FC073512FC07AF05FC07F7
:100080006D12FC07AF05FC07AF05FC07AF05FC07C9
:10009000AF05FC07AF05FC07AF05FC07AF05FC0784
:0200000407FCF7
:100510000448854605F0DCF9004800474508FC071B
:10052000C046C046586BFC0710B50F49062008802E
:100530000F2000F00CF8012000F009F8002000F076
:1005400006F8002005210907088062B610BD0028C2
:1005500009DBC106C90E0120884004490860BFF3C9
:100560004F8FBFF36F8F70470034005080E100E081
:100570000F4880470F48004704207146084203D0C7
:10058000EFF309800C490847EFF308800A49084750
:1005900004207146084203D0EFF309800749084759
:1005A000EFF3088005490847FEE7FEE7FEE7FEE7B0
:1005B0002905FC071105FC072906FC07C105FC07F6
:1005C00005221207518A8023194351821349036877
:1005D0000B6043684B6083688B60C368CB600369C2
:1005E0000B6143694B6183698B61C369CB610862AD
:1005F0000B48836A4B62C36A8B62036BCB62C36B2B
:100600000B63436B4B63806B88630649082008804B
:10061000908A800601D500BE7047FEE70000FD0706
:1006200000ED00E000330050052109070A8A042389
:100630001A430A820A8A02231A430A820A89402339
:100640001A430A811B4B01221A601B4B08221A8095
:100650004A8A80231A434A82184A0368136143680E
:10066000536183689361C368D3610369136243690B
:10067000536283699362C369D36210631048836ACB
:100680005363C36A9363036BD363C36B0B4A4032F8
:100690001360436B5360806B9060888A800608D536
:1006A00000BE488A012280088000D203104348829D
:1006B0007047FEE780E200E0003300504000FD0795
:1006C00000ED00E0F8B503460C4601201546002178
:1006D0002B4E0246412B3BD00ADC012B16D00222C6
:1006E000072B26D0402B23D12078022824D32AE0C0
:1006F000422B33D0432B37D0442B19D120780028FC
:100700001AD01F48407B2870227010E006221D4935
:100710001D485DF7EFFC0627002802D006221A4983
:1007200001E00622B11C28465DF7C0FC27700020BE
:10073000F8BD2078022802D221700420F8BD30785C
:100740002870707802E0307A2870707A6870DBE781
:1007500020780028F0D00A48807AD4E72078002852
:10076000EAD00748C07ACEE720780028E4D0307B72
:10077000C9E7002070470120704701207047000042
:100780001259FC0790E1F1073048FD07F8B502283F
:1007900001D003284ED1974A136904210B431361FA
:1007A00005242407628A20239A436282228A022334
:1007B0001A432282904E0027102202287578608A00
:1007C00039D010436082608A084360827068C01C20
:1007D00083088A480760628A40210A436282628AEB
:1007E0008A43628247618649816201210904C162AC
:1007F000218880200143218000970099491C0091A5
:100800006429FADB618A1022114361827B495B1EF5
:100810004B6121888143218003205BF753F8002836
:100820000CD00120F070208A0F2109028843290290
:1008300008432082F8BD90436082EDE7F77030787E
:100840000543F0E708B500F080F800F09EFA0525B2
:1008500000262D07042709E00421684600964CF77E
:10086000C9FB002814D000F007FA11E0288900061F
:100870000ED501208007006B000409D46148007880
:10088000C00705D15BF7A9FD5F4800780428E3D0D5
:1008900072B601F023F9042806D002280BD00328F1
:1008A00009D001284BD04BE058480078012801D0EE
:1008B000032000E00220694608700446288A384375
:1008C00028822046FFF762FF022C01D0032C18D1AA
:1008D0004F484188FF2201329143418041880122E3
:1008E0001143418000960098401C00901428FADBC8
:1008F000688980088000401C688168894006FCD5B2
:100900006E80A88A800602D542490820088030BF40
:10091000A88A800602D53F49082048803648C0781A
:10092000002807D03C48006801898AB2416803204A
:100930005AF7A2FF2F480169B943016100E030BFB7
:1009400062B6C8203549088090E7F0B53448354E86
:100950000827354A354BB04201D3394608E090426A
:1009600001D30C2104E0984201D30E2100E00F21B5
:100970002F4C304D204864192F4D8170641901258A
:10098000ED034460AC4201D8012406E00325AD0329
:10099000AC4201D8032400E00F240C434470274CE0
:1009A00031468C4223D2264D26467519944205D3F2
:1009B0008D4201D204271AE00C2718E09C4209D38B
:1009C000954201D2022712E08D4201D206270EE0A5
:1009D0000E270CE09D4201D2012708E0954201D28A
:1009E000032704E08D4201D2072700E00F2707709C
:1009F000F0BD000000ED00E00448FD070000F40732
:100A0000204F101A5877FD075049FD07B477FD07AE
:100A100020000050003300505876FD070031005090
:100A20000448FD070000FD0700C0FC070080FC072C
:100A30001005FC0700600000000004F8586BFC077C
:100A40000C040000704770B50D46002441F793FF79
:100A50002855641CE4B2202CF8D3002070BD10B5DA
:100A60005DF712FB10BD10B55DF717FB10BD7047A9
:100A7000704770470649884200D000BE052109072B
:100A8000488A012280088000D203104348827047C0
:100A90001111111124480178002902D080214170E0
:100AA00070472249002008702149C87070471E49CC
:100AB0000A78002A03D000280CD002200BE000287E
:100AC00001D0022000E001201849087018490120D7
:100AD000C87070470120803048707047002805D0EA
:100AE000012804D0022804D10120E0E7D2E7002049
:100AF000FBE770470C48C07870470020EFF3108187
:100B0000012282F31088052212071289120605D4E9
:100B10000848028901231A4302811846002900D09F
:100B2000012181F3108870470C48FD07B477FD0759
:100B30005877FD070033005070B505200007018984
:100B40003022914301810189802211430181018971
:100B500089088900491C0181018908231943018101
:100B6000D3490C8814430C80448A9C4344820589F1
:100B7000402425430581058A0426B5430582858ADC
:100B8000AD07FCD5CB4E002575610E8801252E439F
:100B90000E804D89AE05C84D0E8801D52E4300E06C
:100BA000AE430E800D887826B54328350D800D881C
:100BB000062635430D80458A1D4345820B889343A5
:100BC0000B800289A24302814889800503D5B84978
:100BD00005206031888001208007016882159143DB
:100BE0000160B64801683F225202914342148918BD
:100BF0000160016802031143016070BD10B5B04986
:100C000000200968572901D9573908B2C10F0818BF
:100C100040103D21484300B2C10701D01F3000B24F
:100C2000A849884200D8084680B25BF763FC10BD33
:100C300010B59F494888C006040F48880122104318
:100C4000488048881E22904348809F484B0143803B
:100C50000523038003885B07FCD480884B8893437B
:100C600014334B804B885B085B004B804B8893436D
:100C7000620013434B8010BD70B594490120C863D6
:100C8000C86B0028FCD101208007C069894C002175
:100C90002269904200D22161A2780125002A04D065
:100CA000A1702061FFF7C4FF11E021691922411AE8
:100CB000D201914211D32061FFF7BAFFE188884247
:100CC00001D9411A00E0091A89B2182905D3E08038
:100CD00004F0ECFC002800D1A57070BD10B548F7F9
:100CE000CFF810BD10B548F7DAF810BD714B0020F1
:100CF000197800290DD075490122CA63CA6B002AF0
:100D0000FCD101218907C969714A1268914201D257
:100D1000012070470021197070470020704710B5FE
:100D20006C4900200860FFF769FF01208007016B14
:100D300049004908016310BD08B55E4988805C49D7
:100D40004A8801231A434A80002200920099491CD4
:100D500000911429FADB052109074B899B089B00A8
:100D60005B1C4B814B895B06FCD5488019208001B8
:100D70000092521C00928242FBDB4889800880006E
:100D8000488148890006FCD508BDF8B55248C821FD
:100D900001800024448051480827478000F040F932
:100DA000434820304088C046C04642480121017077
:100DB0003F4860304188C908C90041803C4E718974
:100DC00089050AD54188C2130905090D8918418092
:100DD0004188782291434031418005252D0768885C
:100DE000002801D137488838FFF7A6FF70884008EF
:100DF000400070803A4804606A8A40210A436A824F
:100E00006A8A8A436A8244613649816201210904FF
:100E1000C162288880210843288000940098401CE3
:100E200000906428FADB002000F050FB21482030BD
:100E300000F0D8F82C490A8A1E484281498A8181EB
:100E400000F020FB00F05AF802F0E2FD012041F72B
:100E500098FDFFF771FE2548006841F72BFA2448FA
:100E6000C47004710120800701688215114301607C
:100E700000F086FCFFF70EFE02F090F902F001FF91
:100E8000FFF74DFF1B4913200860FF201A499130DE
:100E900008600B494F200860EC827088E02188438D
:100EA000A03070800C49C82008800C484780F8BDED
:100EB000200000501048FD07001000000002004014
:100EC0005449FD07E204000000160050C000004035
:100ED0000C65FC07AC76FD07003100500033005074
:100EE0000000F407204F101A00FEF8074C76FD07AB
:100EF0005877FD075849FD075C49FD0770B5204C40
:100F0000204920465DF7EBF805211F4849025DF7AF
:100F1000E6F804F073FA1D480025058030221C49CC
:100F20001C485DF7C3F81C481D4905701B48086044
:100F30001D491C4808601E491C4808601D490A20BC
:100F400008701D481D490570322008701C49052095
:100F500008601C4A012111601B4908601B490620DA
:100F600008601B49072008601A4908200860FF2014
:100F7000194907300860194908601948046070BDB4
:100F8000005CFD07781600000076FD074048FD076D
:100F900058ECF107FC76FD07F976FD07605BFC076E
:100FA0005076FD072059FC075476FD07A45AFC072C
:100FB0005876FD07B476FD07B576FD07DD76FD07AB
:100FC0005C76FD076076FD076476FD076876FD07B1
:100FD0006C76FD077076FD074876FD074476FD07C1
:100FE0004C76FD0710B5062201495DF75FF810BD8C
:100FF000A8FFF8070520000701883022114301806F
:1010000001880322114301807047052000070188F1
:10101000302291430180018889088900018070474E
:10102000F0B585B000268C4C0296029828214843E2
:10103000009600190099890046500099491C0091BA
:101040000A29F7DB0298401C02900428EDDB02F02D
:10105000A3FC814D0021083D2960696001270296AB
:101060000020009002997D484900465A0099384670
:10107000884080B206421DD002982821484300993A
:10108000001989004058411C1BD000280DD0C11701
:10109000009A5DF74FF8029A12015DF74BF82A6843
:1010A0006B6810431943286069600098401C0090E9
:1010B0000A28DBDB0298401C02900428D0DB05B034
:1010C000F0BD00BEE3E7F8B5164604460D460A46F5
:1010D0001F46012000215DF72DF822015DF72AF857
:1010E0005D4B083B1A685B6810401940084300D10B
:1010F00000BE032C00D10424594960014018690046
:1011000008183E43C680F8BD70B504460D460A4631
:10111000012000215DF70EF822015DF70BF84E4A21
:10112000083A1368526818401140084300D100BEC5
:10113000032C00D104244A49600140180121A94030
:10114000818070BD70B504460D460A46012000211D
:101150005CF7F0FF22015CF7EDFF3F4A083A1368A5
:10116000526818401140084300D100BE032C00D142
:1011700004243B49600140180121A940418070BD11
:10118000FFB581B00C4605460A461F4601200021E6
:101190000A9E5CF7CFFF2A015CF7CCFF2E4B083B81
:1011A0001A685B6810401940084300D100BE002E49
:1011B0002146284602D0FFF7C5FF01E0FFF7A4FF54
:1011C0003B4621462846039AFFF77DFF77E770B537
:1011D000012421460A3881400D4688B200F02CF8DF
:1011E00084402048C189A9430C43C48170BD10B517
:1011F00004460A3804280BD82046FFF7E8FF1649B2
:10120000A000A03140188038806D002801D08047B0
:1012100010BD002CFCDBE106C90E012088401249FC
:10122000086010BD0A20E2E70B20E0E70C20DEE7B3
:101230000D20DCE70E20DAE700280BD0411E4840E5
:10124000C003010C002002E04908401C80B20029C4
:10125000FAD17047102070475048FD07BA5BFC0771
:10126000003000500014005080E200E010B5FFF79D
:10127000CCFE052000078188CA0B164918D0164BF2
:101280001A88520714D51A88D20711D0188802225A
:101290001043188018884008400018800C68002C03
:1012A00005D0985E0421595E0A229A5EA04710BDBF
:1012B0008088C006FBD5094802881206F7D50122AE
:1012C0008280028880239A43028048680028EED0FA
:1012D000804710BD0449FD07000200500001005086
:1012E00054490A880F239B019A43800102430A80D4
:1012F000704750490A880F239B019A43800102439B
:101300000A80704710B504464A494B4808800020BF
:101310004880062000F046F8204600F050F810BD46
:1013200044484649028802231A430280491E02D3D8
:1013300002889207FAD40021018140897047F8B5EC
:1013400005463F48006800906846FFF7DBFF142021
:1013500000F060F8002D01D0092000E00720FFF721
:10136000C8FFFFF7DDFF0446012000F053F8002618
:1013700068468670FFF7C6FF002D01D0092000E007
:101380000720FFF7B6FFFFF7CBFF2A4900190E80B1
:10139000F8BD2849012008812A480068002800D0AB
:1013A00000477047002809DBC106C90E01208840AC
:1013B00025490860BFF34F8FBFF36F8F704730B57B
:1013C00005001FD01B4C297820880122D2029043AF
:1013D000C9020843208028780128687813D0FFF7D5
:1013E0007FFFA97801208002002921880ED00143C7
:1013F000218009206080E97802200029618807D0D7
:101400000143618030BDFFF774FFEAE78143EFE7F6
:101410008143F6E70AE000BF00BF00BF00BF00BF86
:1014200000BF00BF00BF00BF00BF00BF401EF2D220
:10143000704700000015005001400000A086010028
:10144000C45BFC070C49FD0780E100E010B50A48C9
:1014500080890A49C96A002901D0884710BD042043
:1014600000F001F810BD002805DBC106C90E0120FF
:101470008840034908607047201300501065FC073E
:1014800080E200E018B51B4900220A600520000731
:10149000448A40231C434482448A9C4344824A61D8
:1014A000154B8B6201231B04CB62048880231C43F1
:1014B00004800092521C0092642AFBDB0A68D20866
:1014C000D2000A6001889943018018BD05210907EF
:1014D0000988090600D400BE06490A88520700D0D0
:1014E00000BE002802D0FF20023000E0012008608A
:1014F000704700000000F407204F101A544930B420
:10150000884201D0012100E00021524A4901891896
:1015100008E0838ADB07DB0F12D00388541C8D6838
:10152000CC81AB54CA898B899A42F2D38288520803
:10153000520082808A69002A02D0C88930BC1047D4
:1015400030BC704710B5444800F001F810BDF8B544
:101550003F4D404E044620890007000F062826D044
:1015600009DC012840D002281DD00428F3D12046F0
:10157000FFF7C4FFEFE7072828D00C28EBD1AC42D7
:1015800001D0012000E00020400187192046FFF72C
:10159000B5FFA18849084900A180B9690029DAD0BE
:1015A000F8898847D7E7204600F01FF8D3E72046A0
:1015B000AC4201D0012100E00021490189190A69EA
:1015C000002AC8D0818A9E2319400BE02046AC42F5
:1015D00001D0012100E00021490189190A69002A8E
:1015E000B9D001219047B6E7F8BD194930B4884217
:1015F00001D0012100E00021164A490189180EE0BE
:1016000003891B069B0F032B1BD0838A9B06DB0FD2
:10161000002B95D0531C0C68CB80A25C0280CA883A
:101620008B889A42ECD3828802239A4382808288F4
:1016300080239A4382804A69002A81D0888830BCFE
:1016400010477C231B5A9B07DB0FE1E778E700007C
:10165000001000501049FD0700110050F1B592B084
:10166000644E65490496088AB41C0C9089220520B2
:10167000000702810122614B52031A8002888023F5
:101680001A4302800288920892000280088A02228D
:101690001043088200F00DFB41F792F941F796F9EB
:1016A0000020694601E08888401C8880888891284D
:1016B000F9D3534801880991418810915149CA884A
:1016C0000F920A890E92C2880D92408B08904E4864
:1016D000408807904888069000F05BF80025B0B27B
:1016E0002B468446494861464180FF218180012183
:1016F0000180C188C907FCD10A460846049E275CC0
:10170000365C7E40F607F60F8E401643491CC9B280
:10171000F2B2082905D112994A556D1C0021ADB2CB
:101720000A46354FC82620373E801030FF2680B24B
:10173000B600B042E2D95B1C9BB2022BD2D32E483A
:101740000C9901823249002008802D4809990180B6
:10175000109941802B490F9ACA800E9A0A810D9ADE
:10176000C280089A4283284A079850800698488089
:1017700005200007028880218A43028013B0F0BD53
:1017800010B52448FFF76AFF2248006841F7F9F8CE
:1017900010BD08B51A49002008804880194A1E4B20
:1017A000D380FF23D2331381C880C3215180184ACC
:1017B000082111806946088003E06A461188491CA7
:1017C0001180694609889129F7D36946088003E0AA
:1017D0006A461188491C1180694609889129F7D306
:1017E000694601E00888401C088008889128F9D3E0
:1017F00008BD00001001FC07E0300050000200406E
:101800000024005060280050002600500035005091
:10181000202000504065FC0780800000F8B50126BC
:10182000B607B56B2846FFF75DFA984C2169471853
:1018300000202061964938465CF7BEFB9549486018
:10184000934A5043381A00D0101A80B20860306BA7
:1018500008218843084330638F4805608F4800683B
:10186000002810D0A8420ED28D49097800290AD14B
:101870006168281A4018E168821D8A4201D2801DE1
:1018800000E008466060F8BDF8B5FFF7BEFB002633
:101890008348052706700425824C35E02188042002
:1018A00089088900891C2180608020882843208045
:1018B000FFF7A0FB00E000BF20884007FBD4FFF744
:1018C000A4FBE088A188000408187749401805287F
:1018D0006E480ED24188491C89B24180142918D320
:1018E0004680416882684B1E934200D91A46426086
:1018F0000FE046804168C3688A1C9A4200D21346B2
:10190000436067480121017038467F1EFFB20028FE
:10191000C4D1052000074189890708D04189890879
:101920008900418161494A88520852004A800189F0
:10193000802211430181018AA9430182818A89079A
:10194000FCD500F0C3F8012080070169490700D5E4
:1019500000BE01694907FCD5F8BDF8B50526360774
:101960007089800720D0B08A400701D502F050F876
:101970004E4D28888027384328804A4CFF206080BD
:1019800004202080FFF736FB7D21C900E088A28873
:10199000000410188842F9D90520208044480088A6
:1019A00070802888B8432880424801894907FCD4C0
:1019B000FFF76AFFF8BDF8B5344E0127BD072C6963
:1019C000002C62D0200603D58020A8614BF7BBF91C
:1019D000A00703D50220A86147F77BF9200706D5A9
:1019E0000820A861002047F734F904203070E00592
:1019F00005D5FF200130A861012047F72AF9A0058D
:101A000004D501204002A8614BF706FA600603D511
:101A10004020A86147F718F9E00603D51020A86117
:101A200045F74DFD600721D50420A86121480189B3
:101A30004908490001815AF733FD40F73DFE002077
:101A400030701A484089800510D5707800280DD173
:101A5000194877700088C00708D10120FFF76FFC94
:101A60008B218900884201D902207070E00706D0DE
:101A70000120A8615AF730FD4BF765F93770A006D1
:101A80009DD52020A86100BE99E7F8BD5049FD070B
:101A900071020000400000406C49FD076449FD07E9
:101AA0005065FC070016005061F8FFFF2000005051
:101AB0001448FD07003300500015005010B540F7E2
:101AC00032FC654880686549486010BD10B540F734
:101AD00056FC624860494068886010BDF8B5002631
:101AE00000F0B5F800270090FFF704F85C4C0028E0
:101AF00002D12079022801D10020009059480089A4
:101B0000C00711D1FFF7F2F800280DD159F71FFED9
:101B1000002809D0E0780126002805D0052000071C
:101B2000808AC00701D004268FE0208800287DD15C
:101B3000FEF7E0FF002806D14B48806A002802D05B
:101B400000F085F80090FFF759F8A17868465AF739
:101B500009FB002879D00125AD072869400674D417
:101B60003F48817868464BF745FA00286DD03F49D9
:101B700000200C683E490978022900D132343D49E1
:101B80000A78012A00D121340870E96B1220890AF1
:101B900089020143E963E86B37490840A102084321
:101BA000E863E86B3721C002C00A89050843E8638F
:101BB000324900980426884200D300BEC002642146
:101BC0005CF7FAF9002800D0401E244AC01E611CB0
:101BD0001060884200D1146021480079002801D0AB
:101BE000012100E00021106847F7D9F92448C06AB4
:101BF0008047FFF792F8002802D0FFF7FBF9012792
:101C0000154C286B0004C00FFBD02068C005FCD524
:101C100020688025A8432060002F01D0FFF7F5F948
:101C200010484189462906D2462200E00DE0154BB6
:101C3000511A19604281FFF741FF20680006FCD568
:101C4000052000070189A94301813046F8BD0E48EF
:101C50000068806A70470000000200406449FD0788
:101C60005877FD0700330050787EFD075449FD0783
:101C7000B477FD075149FD07FF03E0FF40420F0025
:101C8000B47FFD076049FD075876FD0700207047C7
:101C90007047704770470020704701218907086B23
:101CA0000722104308637047704740087038C0B27D
:101CB000704740493E48086040493F484881404895
:101CC000418806229143891C41803E4A6321D1808C
:101CD0003D493A4A0988603A11823C4909880180A5
:101CE0003B480078002802D03A49302008837047EA
:101CF00000B58BB0384A4262384A8262384A426143
:101D0000384AC262384A0260384A0262384A42603F
:101D1000384AC261274800214038426B1F231B0408
:101D20009A434313D218426333480268C3129A435A
:101D30000260026803139A43026068464154491CDA
:101D4000C9B22829FAD301462C482822006840301D
:101D50005CF7ACF9FFF7ADFFFEF76AFF2849088092
:101D600003F0A4FC0BB000BD12484038416B1F22A9
:101D70001204914342138918416300060168C9089F
:101D8000C900016005200007018989088900491CF4
:101D9000018101890822114301811A48418989057D
:101DA00004D50188782291430831018081E7000041
:101DB0004C05540780000040EBE60000602800500E
:101DC00000260050002C00501C48FD071A48FD0753
:101DD0007049FD07002400508D1CFC07911CFC0776
:101DE000971CFC079B1CFC07931CFC07A91CFC0709
:101DF000951CFC07AB1CFC07000200404C76FD075D
:101E00001648FD0720000050FFB58FB000241F4684
:101E10001B9E1A9D7E486946099413460884002A31
:101E200005D0042219460AA85CF740F902E0002018
:101E3000C0430A900F980A99401C0B90C0B207E06B
:101E40000A460241D20701D0641CE4B2401CC0B271
:101E5000B842F5D3182044432018032159F79AFDBE
:101E60000446109801882180199961800F981421E7
:101E700048434119087902280DD0042830460CD077
:101E800040221043207109691022A01D5CF70EF951
:101E90000B98C6B272E02671F5E72022F1E70A98A6
:101EA0003041C00768D03046142148430D90401996
:101EB0000C900079022804D0042813D010283DD0BB
:101EC00056E0182102A85CF70AF90D982858017805
:101ED000684601720D9828584178684641720C98FE
:101EE00080681CE0182102A85CF7F9F80D982858C2
:101EF0000178684601720D98285841786846417209
:101F00000D9828588178684681720D982858C178B4
:101F10006846C1720C9801218068890408430690C4
:101F20000C98818968468183182109980A4648439C
:101F3000001902A918305CF7B9F819E00D981822B9
:101F400029580998504300190490102218305CF762
:101F5000ADF80C9904988A680121C9040A43014626
:101F6000283110465CF7DDF80C988189049881854A
:101F70000998401CC0B20990761CF6B2BE428ED3BE
:101F80000998607120464DF77EFF0390002838D1F4
:101F9000109821880180002009900B98C6B2BE429B
:101FA0002FD20A983041C00724D009981421401C30
:101FB000C0B271430990481902908089000419D475
:101FC0000298C089002815D002980079022806D10D
:101FD0006858022208A95CF78DF800280AD00298F8
:101FE0002288C18903690998101880B200224EF72F
:101FF00024F80390761CF6B2BE4202D20398002861
:10200000CFD0204659F741FD039813B0F0BD000032
:102010000328000002468B880020022B01D00D20EF
:102020007047C988002A05D00029F9D00129F7D0C6
:10203000812070470029FCD00229F9D17047F0B502
:1020400089B004464DF770FF05460026384F14E06E
:1020500005A920464DF787FF002301AA07A905A877
:1020600000964EF773F868468088B84203D1641C26
:10207000A0B209B0F0BD641EA4B2A888A04202D8E4
:10208000E888A042E4D20020F3E7F0B58BB0044624
:102090004DF74AFF264F00260546FF371BE008A9EB
:1020A00020464DF760FF002301AA05A908A8009665
:1020B0004EF74CF868468088B84203D16946097DDE
:1020C000022911D01A49884203D16846007D0228AE
:1020D00007D0641CA4B2A888A04202D8E888A04215
:1020E000DDD200200BB0F0BD2046FBE710B5044662
:1020F000FD2000F036FE82790021A24202D98088BC
:10210000001981B2084610BD70B504460D46FD2089
:1021100000F027FE81888022A14206D88079081825
:10212000A04202D9601A28700022104670BD00003B
:102130000328000030B503460120002103241A467D
:10214000CA40D20704D04D0022466D1CAA4010435D
:10215000491CC9B20929F2D330BDFFB585B0054687
:102160000E981E460088FFF7E5FF049030461E21BA
:102170000840A98A4B4A00238030019100930292C3
:102180000390132304AA484906984EF734FA07002F
:1021900027D10121202059F7FDFB044620215BF7C0
:1021A0009EFF2C610698008820830E98008860832B
:1021B000F00701D00120C003079908432080A88AB6
:1021C00060801420E8820120E88120461E30A8604B
:1021D00036486860201D40F79DFCA88A002159F709
:1021E0006AFE384609B0F0BD70B5046905466068FE
:1021F000002805D0201D40F795FC59F746FCF6E76E
:1022000000202861204659F740FC70BD7047704798
:102210002448E430704730B50446228B0920521C14
:1022200093B2648B00222546D540ED0706D05D1C95
:102230008D4201D1104630BD9B1C9BB2521CD2B2C4
:10224000092AF0D330BD10B50346008B5B8B401CD0
:1022500080B200221C46D440E40706D0914202D14D
:10226000401C80B205E0801C80B2521C52B2092A88
:10227000F0DB092A00D1002010BD02460020802991
:1022800001D98D207047062A06D0072A07D0082AD0
:10229000F8D10729F5D170470829F2D170470629EE
:1022A000EFD37047C85BFC070A180000D45CFC073A
:1022B000FFB581B00C46142000F053FD217807468D
:1022C000092935D2FFF7BFFF00282FD06178207889
:1022D000FFF7D3FF06002CD17D680DE02879217827
:1022E000884208D100222946381D40F78BFC284639
:1022F00059F7CBFB02E02D68002DEFD1607801216A
:10230000083059F747FB6178054608315BF7E7FE6F
:1023100020782871607868716278A11CA81D5BF72D
:10232000C5FE2946381D40F719FC02E0822600E070
:10233000812602235248039A049959F739FC2178DF
:102340000170467059F74DFC002005B0F0BDFFB597
:1023500081B0002000900E46039859F7DEFD00285A
:1023600002D001284CD04DE0142000F0FAFC0746C2
:102370003188FFF750FF05464248092D36D27C6868
:1023800003E02179A94203D02468002CF9D117E099
:10239000002C15D06379039A9B1D049959F708FC0A
:1023A000054630882880002028716079688062792D
:1023B000A11D681D5BF77AFE284659F712FC21E043
:1023C0003D770498010A7977384600F0E7FC01462A
:1023D0002B480123401C039A59F7EAFB057059F773
:1023E00000FC0121039859F766FD0BE00623039AD0
:1023F000049959F7DDFB3188018080210171DCE708
:10240000022000900098A0E7F8B517460D46104648
:1024100059F783FD012831D1142000F0A2FC0446B5
:10242000017FFFF710FF0646217F2A781548914269
:1024300014D1617F6B7809023A4608319B1D59F728
:10244000B7FB0446068000202071687860806A78B7
:10245000A91C601D5BF72AFE204609E0617F062368
:1024600009023A46083159F7A3FB06808021017121
:1024700059F7B7FB0021384659F71DFD0020F8BD7C
:1024800001140000140C0000FFB5064685B00027BB
:102490000121282059F77EFA044628215BF71FFE08
:1024A0000025346126E008981E210840B28A803059
:1024B0000390534B00216F460EC75248002241192A
:1024C00004914B78405D0699FFF79EFC0746002D6E
:1024D00002D106980088A0804A480499405D497856
:1024E000091A0698008808180699002F088027D135
:1024F0006D1CEDB2444800788542D4D3434D287812
:10250000A0710898C00701D00120C00307990843B3
:102510002080B08A6080FD20F0820120F08120467A
:102520002430B0603A4870602046103040F7F2FA2C
:102530002988334800F0CDF8B08A002159F7BBFC58
:10254000384609B0F0BD70B5046905462646103618
:102550002069002805D0304640F7E4FA59F795FA8B
:10256000F6E700202861204659F78FFA70BDF3B5D1
:1025700081B00298082800D300BE0124204D254FC9
:10258000224E10E0204614214843411909790229BE
:1025900008D128580088B84204D1E1B2002202983C
:1025A00000F0B4F8641C30888442EBDBFEBDF7B564
:1025B00082B000690124124D164F144E009010E0B5
:1025C00020461421484341190979022908D1285885
:1025D0000088B84204D1E1B20022039800F096F8D6
:1025E000641C30888442EBDB0399009800F0CEFB3A
:1025F000002159F760FC05B0F0BD074870470000A6
:10260000645FFC075C5FFC07605FFC07625FFC07C0
:10261000345DFC0702290000DC5CFC07F7B50746C7
:1026200082B00D46FD2000F09CFB0646046910E0D8
:102630002079B8420CD16079A8420DD030460022F2
:102640002146103040F7DEFA204659F71EFA05E021
:102650002468002CECD101E0002C0ED12846083073
:102660000121009059F796F9044600995BF737FD70
:1026700030462146103040F771FA277165712A46BD
:10268000A01D04995BF712FD002005B0F0BD70B5E8
:10269000064614460D46FD2000F063FB0369002C3E
:1026A00000D100BE002D0DD100BE0BE01879B04264
:1026B00007D158792880981D2060002B04D0002075
:1026C00070BD1B68002BF1D10020288020600A20FB
:1026D00070BDFEB5054600200E4600900124FE4F59
:1026E000019010E02046142148434119097902293C
:1026F00008D128580088B84204D1E0B26A460821BF
:10270000FFF78CFF641CB442ECDBFEBD7FB51546C1
:102710000E460446082800D300BE03AA02A930468C
:10272000FFF7B5FF68460289002A00D100BE039971
:10273000002900D100BE5BF7B9FC6846055502468A
:1027400001893046FFF76AFF7FBD7CB5FD2000F0B0
:1027500008FB84680546002C00D100BE687B6A46F1
:1027600001A90C34FFF793FF68468088082800D041
:1027700000BE0099287B08282DD2421C2A7362785B
:10278000002A0A5C02D0D207F4D001E09207F1D50A
:10279000A18808318BB2A968CA880102C120000152
:1027A000083159F705FA06466078002801D0122052
:1027B00000E013203070A88861884018B080A0889D
:1027C000F0803046A288A11D08305BF76FFC3046D0
:1027D00059F707FA7CBD607800260028A868C288EF
:1027E000018907D00423BD4859F7E2F961880180C7
:1027F000867007E0B9480623801C59F7D9F961882B
:102800004180067159F7EDF9A86859F73EF90021A2
:102810002846AE6000F0BAFA002159F74CFB7CBDA7
:1028200010B50878122801D0132801D1FFF78DFFC9
:10283000002010BD10B50C46FD2000F092FA8088F3
:102840006188A31D401880B2A18800224DF7F5FBD6
:10285000002010BDF8B517460D46FD2000F081FAA6
:10286000044680886988401886B2384659F755FB77
:10287000012805D03046FFF708FC002802D002E00E
:102880000220F8BD00BE6946FFF73EFC002800D0DC
:1028900000BE0121384659F70EFB0C3D0020A56013
:1028A0002073684600786073FFF74FFF0120F8BD82
:1028B000F8B517460D46FD2000F053FA044680880F
:1028C0006988401886B2384659F727FB012805D099
:1028D0003046FFF7DAFB002802D002E00220F8BD04
:1028E00000BE6946FFF710FC002800D000BE0121A1
:1028F000384659F7E0FA0C3D0020A5602073684681
:1029000000786073FFF721FF0120F8BD70B516460F
:102910000C46104659F701FB002813D1FD2000F0AA
:1029200020FA05460623324608216D4859F740F93A
:10293000A988628889180180A1884180A1790171E4
:1029400059F74FF9002070BDFFB589B00F460B98BD
:1029500059F7E3FA002802D002200DB0F0BDFD20A7
:1029600000F0FFF905900020694608720C9802A952
:10297000050A3888FFF7C8FB0024694606468C83A1
:10298000002825D1FD2000F0CBFF43686846007A7F
:102990001422014651430A1D9A5C022A27D1595834
:1029A0004D4A0988914222D1082D00D300BE04AAC5
:1029B00001A9FFF76CFE68468088002800D100BEA0
:1029C0000498002800D100BE405D69468883022437
:1029D0004348A31D001F0B9A0C9959F7E9F80546C7
:1029E000388828802E716C80002E16D01AE0294677
:1029F000059800F0D3F9014638480423C01E0B9A0D
:102A000059F7D6F805706946097A418059F7E9F80F
:102A100001210B9859F74FFA07E0224607A9681DD4
:102A20005BF744FB284659F7DCF8002095E7FFB533
:102A300085B00C46FD2000F094F90390002768460D
:102A4000077008986946060A2088FFF75DFB05466F
:102A50006088002800D000BE002D71D1FD2000F05C
:102A60005FFF694609781423594342680B1DD35C04
:102A7000022B21D15158184A098891421CD1019743
:102A800002972088FFF7DBFA002800D100BE01ABD7
:102A9000002204A94DF7EDFC049821468005C00FE3
:102AA000FFF7B8FA05062D0E4AD168460178E2888C
:102AB0003046FFF72BFE28E000280BD080698446C3
:102AC000002807D06846A2886188A31D0078654663
:102AD000A8470546019705E00229000007FD000010
:102AE000180C00000297208801A94DF73CFA002D30
:102AF00026D101980089C00B07D16288A18820885F
:102B0000A31D4DF79AFA051E1AD13146039800F01D
:102B100045F90146A088079A801D83B23E4859F7BF
:102B200047F80746A288A11D801D5BF7BFFA6846DB
:102B300000787880A088B8803E70384659F751F800
:102B400004233648079A089959F732F821880180FA
:102B5000857059F746F8002009B0F0BDF8B51D465C
:102B600017460E46104659F7D8F9002815D1FD2012
:102B700000F0F7F80446284804233A461946C01CDA
:102B800059F716F8290A0170082900D300BE3188C8
:102B9000A288891A418059F724F80020F8BD70B541
:102BA00016460C46104659F7B8F9012819D11B48AA
:102BB000A179801E002916D0217806230902324609
:102BC000083158F7F5FF0546A078FFF78FFA2880FF
:102BD00080202871284659F704F80021304659F71B
:102BE0006AF9002070BDA1883246891D8BB2217818
:102BF0000902083158F7DCFF0546A078FFF776FA9E
:102C0000288000202871A0886880A288E11D681DA6
:102C10005BF74CFADEE700000AFD0000160C00002E
:102C2000F8B50025804EFF27002818D00024182072
:102C300060438719F88A00F0E9F8002802D041685B
:102C400038468847FF20F8827D60BD60FD81387D71
:102C500059F776F9641CE4B2202CE8D3F8BD0024BF
:102C60002046182148438119224610320D618A827C
:102C7000CF824D608D60CD818D813550087D59F7B3
:102C8000E8F8641CE4B2202CEAD3F8BDF3B505469D
:102C900081B00026408800F0B9F801000AD0624FE8
:102CA0006A88002018234343DB19DB8A934203D14F
:102CB000422628E0402626E0401CC0B22028F1D35E
:102CC000002418206043C019C08AFF2806D0641C65
:102CD000E4B2202CF5D3202C14D014E02846083080
:102CE000009018206043C0190E686B78AA880746C8
:102CF000A91DB0470600EED16888F8820298B98A0B
:102D00000180E8E74B263046FEBDF8B5464E074643
:102D10000024182060438519E88A00F077F800281D
:102D200003D08268394628469047641CE4B2202CC0
:102D3000EFD3F8BDF3B53C4E81B00F460024182008
:102D400060438519E88A00F061F8002804D0C36860
:102D50003A46284601999847641CE4B2202CEED3E9
:102D6000FEBD034610B500202F4A014618244C43EF
:102D7000A418E48A9C4204D11820414388180069B1
:102D800010BD491CC9B22029F0D310BD428850049F
:102D9000400CD20B01D0090208437047028850044E
:102DA000400CD20B01D009020843704730B5FF2117
:102DB000020AC4B21C4B002018254543ED18AD8A09
:102DC000A54204D118214843C018C18A03E0401C21
:102DD000C0B22028F0D31002084330BD30B5FF2127
:102DE000020AC4B2104B002018254543ED18ED8AA5
:102DF000A54204D118214843C018818A03E0401C31
:102E0000C0B22028F0D31002084330BD014610B5EF
:102E10000020C9B2142904D0FD2901D1FFF7EDFB30
:102E200010BDFFF7F5F910BD7449FD0710B500F0AE
:102E3000A5FB00F01DFA0020FDF750FE10BD0C218F
:102E4000254A10B5414389188978FF2902D000F03E
:102E5000B2F810BD00F030FF10BD10B500F0A2F8C0
:102E6000002801D000F028FF10BD10B500F024FFAD
:102E700010BD10B519490A780270401C491C5BF757
:102E800015F910BD1549498C018070470821018052
:102E900010214180002181807D21C180704770B563
:102EA0000C46017800250D4B002904D0012909D0DA
:102EB0004820207070BD8278011D1A70581C5BF785
:102EC000F5F801E040885884257070BD0120087035
:102ED00000204880888070478C4CFD07AC4CFD0773
:102EE0000021F44A05E0834201D101207047491CCA
:102EF000C9B20C234B43D35CFF2BF4D100207047A5
:102F000070B5EC49EC4C0E460C36EC4D0DE0521809
:102F10005268002A07D0C2B20C235A43511849689C
:102F2000401C60702DE0401C607060780C224243B1
:102F30008B5CFF2BEBD10AE089194968002903D08B
:102F4000FFF7CEFF002809D02078401C20702178A0
:102F50000C204143705CFF28EED117E020780C2153
:102F6000414389194968401C20700AE04919C96821
:102F7000002909D0C1B21C2251434919C968401C1B
:102F8000A0708847002070BD401CA070A0781C2154
:102F900041436A5CFF2AE9D10020A0706070207074
:102FA000012070BD10B50121042058F784FFFFF700
:102FB000A7FF10BDA4E7F8B505460024BD4E0AE002
:102FC00080198168002904D0641CE4B2284688472F
:102FD00001E0641CE4B220460C214843315CFF2927
:102FE000EED1B44E00240C3609E08F19B9680029DF
:102FF00003D0FFF775FF002809D0641CE4B20C2150
:103000006143705CFF28F0D10024AC4E10E0641CDA
:10301000B968E4B228468847F1E7801901690029B8
:1030200004D0641CE4B22846884701E0641CE4B282
:1030300020461C214843315CFF29EED1F8BDF8B58C
:103040009D4DE868002835D15223042209219C486F
:1030500058F7AEFD0446E8600D202070002666702B
:103060009848A080E08007202072A672012060723C
:103070001620E072024620460C3093A107465BF70B
:1030800015F8E8682B210E54C07A21462C310D30FA
:103090001F2806D8E07A0821C219204690A30B30D9
:1030A00006E02B20005D8EA34218204608212B301D
:1030B00000F0EDF8E868F8BDFFB5074680481E4609
:1030C0000D4681B0412304220921401C58F770FDB0
:1030D00004461020207065702A463946A01C5AF715
:1030E000E5FF2120065520463246223003995AF743
:1030F000DDFF204658F775FD05B0F0BD70B56E4E8A
:1031000004468500361D7059002816D121020E2371
:10311000042276480A3158F74BFD09210170002C32
:1031200000D000BE70511021818008214180002113
:10313000C1807D22028141818181705970BD70B54D
:103140005D4EB068002827D15D482C230422092158
:10315000093858F72DFD032101700A21B060417034
:1031600017210184002585760446458010210A3008
:103170005AF7B5FF2021E176A583E5835C49658494
:10318000488FFB22FB2800D91046E0845948898FDC
:10319000814200D808462085B06870BD3EB5002544
:1031A0004449009501950C223431684602955AF73E
:1031B0007DFF41480C22183069465AF777FF3E4C94
:1031C00008223834227046A1601C5AF76FFF394933
:1031D00065842431042058F73CFE0021042058F770
:1031E0006AFE3EBD70B50D460102404814462C23D0
:1031F00004220C380A3158F7DBFC014620310D72ED
:103200004C7258F7EEFC70BD19E710B5FFF717FFC9
:1032100058F7E7FC28490020C8600221042058F72D
:103220004AFE10BD10B50446FFF768FF58F7D9FCF9
:10323000214A0020A100121D505010BD10B5FFF70B
:103240007EFF58F7CEFC1C490020886010BD1A4A4A
:10325000002124324B00D35C834203D14800801804
:1032600040787047491CC9B20A29F3D3042070473B
:10327000114910B50020FF232431042442008B544F
:103280005218401CC0B254700A28F7D310BD70B554
:103290000646481C1070092015460C465070224600
:1032A0001946A81C5AF702FF3078A41C0019307088
:1032B00070BD00004C5DFC07744CFD071C5EFC07F4
:1032C0000D0D00004C04000003030A181107595AA1
:1032D00008E4862A9E8FE911BC7C984342180000BE
:1032E000444C472D50525048000000000E0E000084
:1032F000A479FD074808000010B5104658F70DFEE8
:10330000002802D000BE002010BD012304220921A4
:10331000964858F74DFC0121017058F762FCF2E71E
:1033200010B50C780E2C13D008DC012C12D0032C15
:1033300016D00C2C0CD00D2C08D119E00F2C07D076
:10334000112C05D0122C03D0132C01D000F001FD5C
:10335000002010BD4878002805D1FFF76FFFF7E780
:103360004878002801D000BEF2E7FFF776FDEFE7CE
:10337000487800F0DBFCEBE7F8B51C4610460E463B
:1033800058F7CBFD022802D000BE0020F8BD240A69
:1033900000D000BE0C202746474375483D18AC704E
:1033A000FF2C15D00121E9700321042058F783FD7B
:1033B0006F483188C153707A28713146681D0622E2
:1033C0000A315AF773FE012200212046FFF70AFF57
:1033D0003146204600F082FCD7E770B50D784C7876
:1033E000092D04D0002C00D000BE00F0B2FC00205B
:1033F00070BD70B51D4610460C4658F78EFD2A0A62
:10340000032802D000BE002070BD0C204243584863
:10341000FF21101881700021C170204600F08AFC45
:10342000F1E7F0B508780025524C89B01F461646E2
:10343000002804D0012817D0022827D129E06846A7
:10344000FFF717FD684603783246394620460A33AF
:1034500058F7AEFB0446057068460278411C62804E
:10346000201D5AF723FE2BE069460D806846FFF7C2
:1034700009FD0A2332463946204658F799FB0121B7
:10348000017069460988418058F7ABFB002009B0FC
:10349000F0BD0A233946204658F78AFB04466846A1
:1034A000FFF7F4FC022020706846008860806846C0
:1034B0004088A08068468088E0806846C088208177
:1034C0002046E1E70020704738B50C4648206946A1
:1034D00008701D0A2046FFF7E2FC26482902022355
:1034E0000422801C0A3158F763FB69460978417051
:1034F0002178017058F775FB002038BD10B51046D3
:1035000058F70BFD012809D1FFF754FD002805D01D
:103510000221042058F7CFFCFFF7A7FC002010BDC4
:1035200070B518460D460146E1200623000158F704
:103530003FFB044601462846FFF7C8FC204658F7E3
:1035400050FB002070BD0020704700207047002015
:103550007047FEB51C46089B0D26074D6F4668C791
:103560001346224600F0B5F8FEBD0000020D000033
:103570008C4CFD070B0E00008C5DFC07704710B5EE
:103580000A23042209210B4858F712FB04461B208A
:1035900020701420FFF75BFE607014206080042010
:1035A000A0800020E080FF2174312181204658F75F
:1035B00018FB10BD1B0D0000F8B50E460978184623
:1035C000002425460B005AF7C5FD09060912091506
:1035D000150C180F1B000B241AA512E007241CA5BC
:1035E0000FE008241CA50CE007241EA509E00A240E
:1035F0001EA506E00D2420A503E0062422A500E078
:1036000000BEA31C0146224858F7D2FA074630787C
:1036100038707C70002C04D022462946B81C5AF71A
:1036200045FD384658F7DDFA0020F8BDFEB51C46CA
:10363000089B0126174D6F4668C71346224600F0C7
:1036400048F8FEBD4469616C6F672053656D690081
:103650004441313435383500123456FFFE9ABCDE11
:103660000000000001D2008005000100312E302E44
:10367000302E302D4C450000765F362E302E313600
:103680002E31313434000000FFEEDDCCBBAA000047
:1036900003140000045EFC07FFB583B01E4E002437
:1036A00001AFA0003558002D00D100BE009703A83F
:1036B0000FC8A847002809D0641C042CF1D303AC20
:1036C0000FCC00F046FB002007B0F0BD6846007943
:1036D000FAE7F8B5089C9C46079D0346002C19D0D4
:1036E000641E17D40D4FE600AE5B9E4201D0BE4271
:1036F0000ED1E3005B195C68002C00D100BE002CE9
:1037000008D013466246A047069908700020F8BD0D
:10371000641EE8D50120F8BD0C5EFC07FFFF000029
:10372000052000070089000608D501208007006BEE
:10373000000403D403480078C00701D0002070477C
:10374000012070475877FD077047704770B50D46E8
:103750000446FFF7E5FF002806D06B482A460421FF
:10376000201858F777FC70BDFDF7C7F966480422AA
:1037700008231146801E58F71BFA4560047058F75D
:1037800030FA70BDF8B5614C069D06190024002E74
:1037900026D0012E0CD05F4F5D4B3A46283A022EC0
:1037A0000AD05A49C91E41180A2927D30120F8BD59
:1037B00000F080F8287039E00878461E092E0DD8F0
:1037C0008000001F105898422FD1B0003B58135072
:1037D0004A6808781146FFF7B9FF26E000BE24E0EA
:1037E0004A68002A02D04C48824200D900BE0878BC
:1037F00045494018042158F72DFC16E04349891E1D
:103800004018C0B2411E0929E8D88600B218803A93
:10381000D16F002909D0994207D0404B994204D07A
:10382000D467F219803AD46788472C700020F8BD1D
:103830000A46010010B5384801D0814200D900BEC7
:103840000020344B283B84001C59002C04D0401C21
:103850000A28F8DB002010BD84001A51401C040621
:10386000240EF7D02046FFF771FF204610BD70B53B
:103870000446401E09281BD82648A10028380D18E8
:10388000803DE86F002813D0244EB04210D01E486F
:103890000421201858F728FC1B480422082311464D
:1038A000401EEE6758F784F9047058F79AF970BD16
:1038B00000BE70BD10B508780C46411E09291FD8FE
:1038C00082001448121F28388258144B9A4205D19E
:1038D0000022890042502830425012E089004058AE
:1038E0000B4988420DD1042208231146064858F797
:1038F0005FF9217801706168416058F772F900E062
:1039000000BE002010BD000003040000FFFBFFFF0D
:103910004B37FC07FC4CFD07FCFF3F004937FC0719
:103920000021154A06E0834203D11C204143881838
:103930007047491C1C234B43D35CFF2BF3D1002061
:10394000704710B51823042209210C4858F730F9A4
:1039500004461B202070FD20FFF779FC6070FD20DD
:1039600060800420A0800021E180E1602161A182CB
:10397000204658F736F910BD1C5EFC071B0D0000F1
:103980003EB51D46069B0024009313460194029405
:103990002A46FFF79EFE3EBD70B52A4B0026986A68
:1039A000F643002801D0304600E00120C117020C88
:1039B00009041143020498622348046845682243BD
:1039C000294302604160D968002900D10126F1171E
:1039D000720FC900DE6011430468F200436822439D
:1039E00019430260416070BD38B5012003242402F0
:1039F00000900823224603210020FDF7C1FB002090
:103A000003460146009022460120FDF7B9FB38BD70
:103A100010B505242407208A022188432082A08A29
:103A20000007FCD509484188FF220132114341803B
:103A300001F0CCFCFFF7D8FF608A202188430843BF
:103A4000608210BD5048FD074848FD072000005027
:103A500010B5FD203EF7F3FE014608230422664818
:103A600058F7A6F8654C2188491C2180082141801F
:103A700002218180012141702188C18058F7B1F86D
:103A8000042058F74AFA032804D15D496420FFF75F
:103A9000CFFE608010BD38B50025684605708A8865
:103AA000891D5AF703FB68460078544C002805D05E
:103AB00053496420FFF7BCFE608038BD6088002851
:103AC000FBD0C0B2FFF7D3FE658038BD08B5002239
:103AD000684602708A88891D5AF7E8FA68460078B5
:103AE000012806D0002803D100210120FDF70CFB9E
:103AF00008BD00210120FDF725FB08BD10B5887920
:103B000000281DD01C0AFD203EF799FE01463A48C8
:103B100008230422801C58F74BF80C214C433949E8
:103B2000364A611889780170132141800221818011
:103B300091880B0A8371C171491C918058F751F823
:103B400010BD70477047704710B518460C460146C7
:103B500029480823083058F72BF821780C225143C4
:103B6000284A891889780170618841800021818004
:103B7000817158F736F810BD10B518460C4601464D
:103B80001D480823083058F713F821780C225143B8
:103B90001C4A8918897801706188418000218180E0
:103BA0000321817158F71DF810BD70B50D461349FA
:103BB000C888401CC880FD203EF741FE01460E48E3
:103BC0000A230422401E57F7F3FF044628780C21ED
:103BD00048430C4902224018807820706888608031
:103BE000A28000200549A071891DE01D5AF75EFAE8
:103BF000204657F7F6FF70BD06FD0000244DFD0777
:103C0000513AFC078C4CFD07A3484179027909021F
:103C10001143491C89B201710A0A42719F4A9142BB
:103C200002D1002101714171704770B59A4CA41FF7
:103C3000E078000602D525462B3501E0964DAD1DF6
:103C4000FFF7E2FFE07806224006400E4019924955
:103C50005AF72CFA904A63792532104621791F3899
:103C6000FFF72AFA8E498F48FFF7E2FD607070BDBA
:103C700010B5894CA41F2078FFF7D4FA0020A0705B
:103C800010BD70B5844D0024AD1FAC700521A81D7A
:103C90000170FF214170CD218170AB21C170047191
:103CA0004471162280A1801D5AF700FA162028714F
:103CB0006C71FFF7BBF870BD10B579497948FFF713
:103CC000B7FD7549891F4870FFF79EFA0123062248
:103CD000714900F0A0F8FFF798FA10BD70B50C46D6
:103CE00005460C207649684340188078FF2816D096
:103CF000694EB61F35707078FFF7B9FD60880838D7
:103D0000092805D2A088002802D1E0887D2808D0A3
:103D10007D206C49C000FFF78BFDB07001E0FFF71C
:103D2000CBFF21462846FFF78AF870BD442800D112
:103D3000C2E7704710B5584CA41FA078002803D0E4
:103D4000FFF795FD0020A070FFF75EFFFFF7B4FFBF
:103D500010BD70B55C4C1D46031BA0421FD01FDC7C
:103D60005A4BC3181BD05A4CE34218D10C46498811
:103D70002E294BD0544808232946001F57F718FF17
:103D800021780C2251434E4A891889780170618844
:103D90004180002181808021817157F722FF70BD11
:103DA000012B08D0042BFAD14B88172B2B462AD095
:103DB000FFF7E2FE70BD4B88102B1CD009DC022BF4
:103DC00011D0052B13D0092BF4D12B46FFF7BAFEE7
:103DD00070BD142B03D0172B11D0182BF8D12B4604
:103DE000FFF78CFE70BD2B46FFF755FE70BD2B46CE
:103DF000FFF76CFE70BD2B46FFF7A5FE70BD2B468E
:103E0000FFF79FFE70BDFFF79FFE70BD2B4621465A
:103E1000FFF7CBFE70BDFEB517460446002B01D060
:103E20001C2000E01F20E27A1B4E831A20460C3033
:103E3000019020302546B61F20350090BB4209DB9B
:103E4000019810183A465AF731F9E07AC019E07231
:103E5000801F0FE0E87A1F22121ABA420CDB009A88
:103E600080183A465AF722F9E87A8021C019E87298
:103E7000801F0843F07000E000BEE27A064832710D
:103E8000801D01995AF712F9EA7A034872712530B8
:103E900000995AF70BF9FEBD324DFD07FFFF0000F8
:103EA0002B3CFC07B80B000003030A181107595AF2
:103EB00008E4862A9E8FE911BC7C984342180000D2
:103EC0008C4CFD07713CFC0709FD0000EFF1FFFF82
:103ED0000D11FFFF70B50E460446002203214DF779
:103EE0003AFD05464EF706FF688028464DF744FD2B
:103EF0004EF700FF7188884200D3084601462046ED
:103F00004DF721FE002070BD0246FF4B92009A58EB
:103F10000120126900290ED0517F5E239B5C002B8B
:103F20000BD0052906D1517E090702D5917C0907DE
:103F300000D400207047917DEFE70229F9D00429D1
:103F4000F7D00529F6D10020EDE7024630B5930001
:103F5000ED4A0120D2581269137DD47E157F23408B
:103F6000547D2C40012901D0022909D1957C527E33
:103F700015402A0704D41A462243D20700D1002054
:103F8000032901D0042904D1590702D4610700D4C0
:103F9000002030BDF8B514460D46104657F7BDFF5A
:103FA000240A002830D0D949A2008B5801271E8B43
:103FB000BF023E431E83132826D0142824D0152880
:103FC00011D088582D210A5C0123D10600290CDA72
:103FD0000146A0318E7D002E07D08B753D212046F5
:103FE00042F708FA10E00220F8BD110703D50021BE
:103FF000A0308175F7E7A030837520463FF7F4FEC7
:10400000294620463FF733FF0020F8BDFFB581B0B9
:104010001546170A104657F780FF002838D0132896
:1040200036D0142834D0290A8C00B84E152815D063
:10403000FF202946033058F757F830592D21095CE5
:10404000C90603D5A030C07D00280ED03D026D1CEE
:10405000A8B257F762FF19280CD00FE030590121A0
:10406000A030C175022005B0F0BD3D21384642F7B1
:10407000C1F90DE0A8B2012157F71DFF3059012207
:10408000018B520291430183384602993FF7EFFEBC
:104090000020E8E7F0B59D498700C9590026803126
:1040A0004A8C8B8C1B2A00D21B228C8B944200D210
:1040B00022468A849A4200D001260B8CCD8C1B2B81
:1040C00000D21B23CC8B9C4200D22346CB84AB4234
:1040D00000D001260B8ECD8D9C46FF2349339D4297
:1040E00001D21C4600E02C460D8DA54200D325468A
:1040F0000D86654500D001264C8EA4468C8D9C42D1
:1041000000D21C464B8DA34200D21C464C8664450F
:1041100000D00126EB080B3B9BB29A4200D213461B
:104120008B86522379495843794BCA591C6880328F
:104130000419D28C8034E285C9591A6880318018FC
:10414000498E803001863046F0BD10B50446714876
:10415000008D8007800F012800D0002060710028AA
:1041600007D054F743FA01460622A01D59F79EFFD7
:1041700010BD06226849A01DF8E770B50546002469
:104180003EF7F9FB2855641C082CF9DB70BDF8B527
:10419000022707700126044646700D4688795F495C
:1041A000C96988472A210855287900210007000F8E
:1041B000A070030059F7CEFF07050709100D100B7B
:1041C0001000A1700AE0A67026E0032002E0A770AC
:1041D00004E00420A07001E001281DD0A888000A96
:1041E000801FC0B2A0721F2800D9A17228463EF7D6
:1041F00077FC811D2046A27A0B3059F757FF2846DD
:104200003EF76EFC01460622201D59F74FFF287924
:104210004006C00FE070F8BDA172F0E7F7B5446842
:104220008CB025462435039505460746243548F7C6
:104230006BFD06464420405B5221484334490968DF
:104240004018C0304089694608840121384643F748
:104250009AFC48F7CEFB09900E9800698088000A06
:10426000C1002F480818298940182D495B3159F79A
:10427000A3FE01466868039D4718403528890690CB
:104280000090A0680099381A4001400959F794FE3F
:104290000A910098C019401A400140096946A0607F
:1042A000098C4900C919891C49014909884204D26D
:1042B0000699401840014009A06001460998081A73
:1042C000400118494009884215D900202B89A2686D
:1042D000401CD21852015209A260EA89521CEA819C
:1042E000A368099A9A1A520152098A42EED801B279
:1042F0000D9843F7E9FCA1680998081A4201607D0E
:104300005209824221D80FE02C7EFD071879FD0763
:104310004C76FD074C7EFD07CF79FD07B47FFD0786
:1043200016020000FFFFFF032A8989184901490985
:10433000A1602A890A99511A814206D901210D9852
:1043400043F7C2FCE889401CE8812989A06859F735
:1043500033FEF1802889B080208A3081A88870815E
:104360000020B081C807C00FB073A888522148430D
:104370008E303082304648F7D2FC039846632046A0
:104380000FB0F0BDFFB5002093B006460124FE49F2
:1043900049680A7821460C2A0CD06A46117300221B
:1043A0001192002E09D015990291169D1F2D54D9F6
:1043B000402052E000242246119413990291149D4A
:1043C000F4E7029989184978012905D0172903D003
:1043D000182901D0192912D1631E04E003AFFF5C34
:1043E0008F4204D05B1E5BB2002BF7DA03E0002B98
:1043F00001DB4A2003E003AB1955641CE4B20B0057
:1044000059F7A8FE1D2610101010101010101026BD
:104410002626262626262626262626261010101094
:1044200010102600119B03E00BAFFF5C8F4204D0FD
:104430005B1E5BB2002BF7DA03E0002B01DB4A20A6
:1044400006E0119F0BABD9551199491CC9B21191C6
:104450000299895C521C89188AB2AA4201D20028AA
:10446000AFD0AA4200D04A20761CF6B2022E01D26A
:10447000002894D017B0F0BD10B50022134607E015
:1044800084186478012C07D0845C521CA21892B264
:104490008A42F5D3184610BD80188378FAE7F0B544
:1044A0000646A9B01546002084006318DA789F7884
:1044B00012025B783A4352BA1B041A430B5D07247D
:1044C0001B061A43231A9F0020AB401CDA51082810
:1044D000EAD300218A0090190746C37880781B022E
:1044E000034378785BBA00040343B05C10AA00066B
:1044F0000343601A80001350384622304378007816
:104500001B0203433846203047785BBA3F040078EB
:104510003B43000603430F27781A8000491C1350C1
:104520000829D7D358F756FC0146304659F7CFF83B
:1045300000282DD058F74EFC034620AA10A9684643
:1045400059F7D0FC00226846A11A8B009600C75C80
:104550007119CF70C75A3F0A8F70C7583F0C4F7000
:10456000C35820311B0EAB550F239B1A9B00C65C12
:10457000CE70C65A521C360A8E70C658360C4E7013
:10458000C3581B0E0B70082ADED3002029B0F0BDE3
:104590000120FBE7F7B500251746064641232A46CA
:1045A00029460A2057F704FB0446002E10D0012E9E
:1045B00002D0022E0CD105E02022611C00203EF723
:1045C000F3F904E0621C394601983EF79DF920702A
:1045D000204657F706FB2846FEBDF8B56B4800900D
:1045E00007680C46002F7BD005461C35287E002826
:1045F00076D0012802D0022872D102E0207800286B
:1046000019D038896249002688423AD1072047F7F5
:1046100073FF002835D042233E2200215D4857F722
:10462000C7FA082101702178002913D003214170B5
:104630002178817043E055480226611C14302E76A3
:104640002022044659F732FD2246534930463EF7B0
:1046500065F945E0002146701F22531A1B194718BF
:104660005B78491CBB702029F7DB00213F22531ADD
:1046700047181B1920375B78491CBB702029F6DBD3
:104680001DE043493889491C88421AD1082047F760
:1046900033FF002815D022233E2200213D4857F742
:1046A00087FA09210170217800291BD0122141705D
:1046B0000021FF224318491C9A702029FADB4AF78F
:1046C00027FA2E76402057F7F6FE00983EF72AFA92
:1046D00057F7B1FA00980068002801D03EF719F9A1
:1046E0000020F8BD002146701F22531A1B194718DD
:1046F0005B78491CBB702029F7DBE0E770B50878D0
:1047000000250C46012809D01D2810D02B2812D0D6
:104710004022194652F70CFA284670BD57F7B5FDEE
:104720001948012504601D4853F795FDF4E71C481E
:104730003EF758F8F0E71B4801680029ECD1012149
:10474000016019483EF754F9E6E770B5104D174C73
:10475000223DAB422ED10F4809232A460021C01E1C
:1047600057F726FA044608221149401C59F79EFCC7
:1047700020790821084320710025257020464AF73A
:10478000C7F9284670BD00004C7EFD07287AFD075A
:10479000252000000408000089E7F107030C000051
:1047A000C3C3C3C35077FD07CC7DFD070DC3F0071E
:1047B0005CE5F107A047E5E7F1B584B00498FF494F
:1047C00080000C5804980502A81D0290002C15D0FA
:1047D0006068818804290CD34188861D0C380091BB
:1047E00001903146049854F70CFBF549884206D1F4
:1047F00060680C3857F71FFA0020606033E4F178E6
:10480000B2780F02019928431743C88038464038D0
:104810003F2819D803223946049850F779FB06003F
:10482000E6D0B07B0128E3D13420B07329460A31A9
:104830000423E448029A57F7BBF9B189418010215B
:10484000017057F7CEF9D3E7616834200870022170
:10485000009857F79FF805463146009A59F726FC0D
:1048600068782978000208436168C880E878A978E8
:10487000000208436168062F08810BD0042F09D07D
:104880006068052F10D00C3857F7D5F9284657F730
:10489000FCF8B1E760688188052913D32979817212
:1048A0006168287988720DE0818805290AD3297901
:1048B000817261682879887260688188062901D3CD
:1048C0006979C172606857F78CF9DFE7FFB587B087
:1048D0000E46099857F721FB0999090A0391002808
:1048E00076D08800B54905900D58B749B079096B65
:1048F0000A225043B47808183EF7F2F8019068682D
:10490000002808D0012C2DD00398FFF755FF6868C8
:10491000002802D026E0022C5AD1B08801270228B4
:1049200005D30198417800780C02044302E04EF769
:10493000E1F904464EF7DEF9A04201D20224002735
:1049400020464C3083B29E49A048099A57F730F967
:10495000241D68604480002F01D0002000E0342036
:104960006968087068680028BAD0811D0091B28813
:104970000199841C071D01928088238882189A421D
:1049800009D8009A8018019A59F790FB3988019844
:104990000818388009E01A1A009BC01859F786FBDE
:1049A00020883880696834200870388804280FD33C
:1049B000009841780278080210432188001D88423F
:1049C00007D280B220803988814207D9388002E03E
:1049D00068E0884202D969683420087038882188E4
:1049E00088425FD1686800990C380190039854F7A9
:1049F00008FA69680978002951D1714988424ED076
:104A000003990F0201993843C88020880221019040
:104A100056F7C0FF04902288009959F747FB049885
:104A200000283FD0696800208880019802226B46E8
:104A3000039907C36868049B821C011D801D3DF714
:104A400029FF69680870049857F71FF8686841885B
:104A5000002902D00178002954D0018940393F292A
:104A600044D8017830291ED00146544A05980C39A3
:104A7000105808303EF772F869680398891D3DF7B1
:104A80001AFF4628686801891FD00322039850F74F
:104A90003FFA00282CD0808A00282CD028E00398E8
:104AA000FFF78AFE42E04A49098D0906C90F07D07F
:104AB00048490C380968099A898D89B257F7AEF8C8
:104AC00068680C3857F7B7F812E00322039850F7DC
:104AD0001FFA04000CD039460A3104233948099AD8
:104AE00057F766F8A18941801021017057F779F8CE
:104AF000002068601AE068680022018903983DF789
:104B0000D5FEF5E70189084640383F280ED8032234
:104B1000039850F7FDF9002808D0808A002805D1B5
:104B200068680022018903983DF7C0FEB0793DF71F
:104B3000CAFF00200BB0F0BDFFB58BB0064616983B
:104B40000027022821D00D980188149881427DD336
:104B50007188084640383F2802D8159850F719FA4E
:104B60000C98361D0088149A80190E9959F79EFAF0
:104B70000C980188149808180C9908800D980188E1
:104B80001498081A0D99088069E100200E9D07907D
:104B900069782C78090221433180E978AC780902E0
:104BA000214371808C46403904242D1D0246034662
:104BB0008E46402900D3287861460DE0AC7DFD0784
:104BC000FFFF0000260E0000E078FD07010A00004C
:104BD0004C7EFD075876FD0704291FD0052914D007
:104BE000062918D070463F283ED8159850F7D1F9BD
:104BF0000006000E04D0FC48008D0006C00F31D026
:104C000002230120F94A002712E0697800290FD019
:104C1000F74A17230CE0F74A0F2309E0522802D085
:104C2000D22802D002E0142000E01520F24A1F230F
:104C3000002A7DD098427BD2800010580490002832
:104C4000F7D0002008900590708800E006E1403819
:104C5000402803D32878052430716D1C701D009006
:104C60000498AFE03027EDE03327EBE0522864D022
:104C70000CDC4B283FD004DC41286AD042285AD1B2
:104C800011E04C2820D0502855D140E0632830D086
:104C900004DC572818D061284DD19BE06C2864D0E3
:104CA000772848D109E00098297801700098641CA1
:104CB000401CA4B26D1C009081E00498401C04903C
:104CC0000178089881427AD10098A41C401C4108C0
:104CD0004900881C009068782A78000210430880F8
:104CE0000599AD1CA4B2002969D008900020059058
:104CF00065E00120FBE710222946009859F7D6F914
:104D0000009810341030A4B21035009057E02046BF
:104D100040301499039088420DD8402229460098CB
:104D200059F7C4F9009840300090039884B200E02D
:104D300079E0403543E0342741E0082229460098D5
:104D400059F7B4F9009808340830A4B20835009037
:104D500035E006222946009859F7A8F90098A41DC5
:104D6000801DA4B2AD1D009029E01498001B80B2F4
:104D700003903088001B001D81B201200790049829
:104D8000401C04900098401C40084000009004988B
:104D9000007857281CD04228CDD100980170090A0C
:104DA000417000982946801C0090039A59F77EF9BB
:104DB00003980399201884B2009840180090049832
:104DC000401C04900078002820D0002F19D01DE04E
:104DD0004908E2E71498001B80B203900098039AF8
:104DE000401C410849000120009107902946009885
:104DF00059F75CF903980099201884B203980818B1
:104E0000DCE70D990988A14200D32FE70D980088AF
:104E1000A04208D304990978002904D107990029F0
:104E200003D1A04201D034270CE00D99001B08806B
:104E30000C9801880098801B001F08180C99002FFF
:104E400008800CD07088042809D0062807D0403884
:104E5000402804D30E984079707100E0342738461A
:104E60000FB0F0BDFFB581B01F4616460C46104688
:104E700057F753F800253F2802D02189062908D08A
:104E80003B4632462146019850F70FFC054628461E
:104E9000B4E4000701D50225F9E720780028F6D10F
:104EA000300AA11D3DF711FCF1E7F3B581B001987F
:104EB000524C850060590F464068CE880146243127
:104EC000009143F733FA00994D4A40310091C98966
:104ED000701A80B2904214D2B14212D06059314659
:104EE000406842F7DCFA60590522791C1F3059F7F7
:104EF000DDF8019805210002401C80B256F7DBFF67
:104F0000FEBD60590522791C1F3059F7CFF8009873
:104F100080883EF7B7FAFEBDF8B53A4C06468500E4
:104F20000F4660594821095C24290ED100691022DE
:104F3000791D2E3059F7BAF8615925204031087291
:104F40000022114630464FF789F960594821095C23
:104F50000C291FD100691022791D2E3059F7A6F8AF
:104F600060595F210069095C09072DD401462E3183
:104F700010221E3059F7BEF800280CD060590921C4
:104F80004030017230464FF787FE0146002230461E
:104F90004EF7EFFCF8BD0421684601706A46052112
:104FA00030464EF791FE684601786020014368461E
:104FB000017030464FF770FE0146684602780123C3
:104FC00030464EF7EBFDF8BD30464FF765FE012841
:104FD0001AD0605907214030017200221146304634
:104FE0004FF73CF9F8BD00004C7EFD0714F3F107C4
:104FF0001CF3F10778F3F107B4F3F1071879FD0713
:10500000FF7F00002C7EFD07615900200969C03137
:10501000887160590421026930461E324EF754FEF1
:10502000605901694031897F002907D01A21403039
:105030000172002130464FF79BF9D3E71B21403026
:10504000017230464FF7E9F9CCE7F8B5EC4C05466C
:105050008600A0594822125C192AC3D14022493047
:10506000491D59F723F8A0594022E649493059F71C
:1050700041F8002805D0E3492846203956F799FA27
:10508000B0E70B21684601706A46052128464EF7B5
:105090001BFE68460178602001436846017028467F
:1050A0004FF7FAFD014668460278012328464EF77D
:1050B00075FD97E7FFB581B003980C46060A0025F9
:1050C00056F72BFF002818D0132816D0142814D018
:1050D000CD48B700C0592030407BC00628D5039882
:1050E00056F71BFF15280CD0A0793DF7ECFC304695
:1050F00042F703F9032806D015E0A0793DF7E3FC59
:105100001FE002251DE0C048C0592030407B400709
:1051100004D53D2130463EF70EF904E03D22002142
:1051200030463EF716F93D21304641F763F908E075
:1051300020460C38B5498180C680204649F7E8FCF6
:1051400001252846A4E6F1B592B012983DF7C8FCB7
:105150000446129869460079AD4A4006C00F0A908D
:1051600008900A208883618B081A90427ED2E08AD8
:1051700006287BD31922D201904277D8228BFF23B5
:10518000F5339A4272D8521C9300D2180346534307
:105190005B1C5A100A2359438A4267DC217F00298D
:1051A0000CD1617F002909D1A17F002906D1E17FBF
:1051B000002903D12021095DC90657D02746203791
:1051C0007978C906C90E491F0C294FD2A18A81429C
:1051D0004CD8E17C002949D0421E082A01D9082078
:1051E00000E0401E814241D806A841F7EBF80028B4
:1051F0003CD1884D0622E86121460EA858F756FF9B
:10520000A878002874D06079800901280AD0204647
:105210000A9947F715FA010062D03820405C00284F
:1052200058D05DE0204647F778FAE861002804D1BD
:1052300010A9204647F787FAE861764E803EF16A6A
:10524000887A012801D0042812D1E86900280DD0FD
:1052500006222530103158F74DFF002806D1E869A5
:10526000F16A2030C07AC97B884200E07EE07DD1BF
:10527000EE69002E34D03046253001460B900622D0
:105280000EA858F713FF2036F17A089107AA0B9859
:1052900047F7B8F800280FD0E8692030C07A002816
:1052A00011D168465C49808B46F75EF807AA012158
:1052B000594847F7A7F806E007AA012110A847F7C1
:1052C000A1F800280CD0E9696846808B323146F796
:1052D00061F805E00A18527D002A0AD0102873DB15
:1052E0004C488038C06A407A022806D0032804D08F
:1052F0000EE0401C1028EDDBF2E76846808B0A28A0
:1053000006D307AA20460A9947F77CF800285BD005
:10531000002206A9204647F71FF9002854D13D4D29
:10532000803DE86A407A02280BD0032809D0002388
:105330006846028B0EA8089947F72FF9002802D07B
:1053400031E00123F4E7E18A68468180218BC18046
:10535000618B018178784109684681747878C1064B
:10536000C90E684641740622214600E02CE00A304E
:1053700058F79CFE129800794006C10F68460174E8
:10538000038B214601A8AA6D41F7C9FF0146A86514
:1053900001A83DF76FFE0020A865214668461C3134
:1053A000008B41F762F844F700F81A4C203420795A
:1053B000002805D00021092056F796FE0020207114
:1053C0000021084656F777FD13B0F0BD10B57022E6
:1053D0001249134858F76AFE1049382238391148E3
:1053E00058F764FE0E481049A03001600B4970392F
:1053F00041600B490D482039086010BD704700001E
:105400002C7EFD07EC7DFD071879FD0706080000DE
:10541000770C0000E479FD0704E5F1079463FC07CD
:1054200020000840C000FC078CBFF107FF3F1000C0
:10543000F0B5374887B0018906914188354D05910F
:10544000A9890491698B344AC9B212880392334AFC
:10545000D289334C029222880192C2880092314A4A
:105460000126038976037711BB4303814388B71074
:105470003B434380A889000A000296310843A88173
:1054800025483821018025480027C7811078002849
:105490000DD0254821880068721111432180218890
:1054A000090A09024030007D0143218002E01420F6
:1054B00000F088F91848878001880188012211438B
:1054C00001800188C907FCD000E0761E0188C90769
:1054D00001D0002EF9D187800D49069A0A81059ADC
:1054E0004A80049AAA81039A02800C4B029ADA81BC
:1054F000019A2280009ACA80002E02D0012007B0B3
:10550000F0BD01884908490001800020F7E700004C
:10551000002C0050002500500022005000240050B4
:10552000002000500464FC074C76FD07F0B53248BB
:1055300085B0018803914188029130490989304B37
:10554000019119882F4C009127882F49CE88032577
:105550006D022E490022028022224280FF2227482B
:10556000D13202812C221A800878FF2101310028D3
:105570000CD02748228800680A4322802188090A23
:1055800009024030C07C014321800AE020880843A2
:1055900020802088000A000213302080132000F0B1
:1055A00011F91748002181800288028801231A43DB
:1055B00002800288D207FCD000E06D1E0288D2076C
:1055C00001D0002DF9D181800B49039A0A80029AFB
:1055D0004A800A4A019911810099018027800A496D
:1055E000CE80002D02D0012005B0F0BD0188490811
:1055F000490001800020F7E7002400506028005097
:105600000022005000200050002C00500464FC07D1
:105610004C76FD0730B564480288032149023423E3
:105620000380002383800488048801252C430480A0
:105630000488E407FCD000E0491E0488E40701D098
:105640000029F9D183800280002901D0012030BDDA
:105650000188490849000180002030BDF8B5534C4D
:105660006088C6076088F60FC005C50F60884008CF
:10567000400060806088FF270137B8436080FFF7F3
:10568000C9FF002805D0FFF751FF002801D0FFF720
:10569000CFFE6188A1886188490849003143618053
:1056A00061882A02B94311436180F8BDF8B53F4CC7
:1056B0006088C6076088F60FC005C50F608840087F
:1056C000400060806088FF270137B84360803DF765
:1056D00077F93DF77BF90022082102203DF76AF9AE
:1056E000002800D001206188A1886188490849000C
:1056F0003143618061882A02B94311436180F8BD5A
:1057000070B501252A492A020A60BFF34F8FBFF303
:105710006F8F28490A6028490B681C0A240240231D
:105720001C430C60224980390A6020494C880626B7
:10573000B443241D4C804C882C434C804C88382525
:105740002C434C804C889C434C8001280FD14888C6
:1057500033021843488048881043488048882A020A
:10576000104348804888012292039043488070BDCE
:1057700010B5124CE18A124ACBB21189248BC904AC
:10578000890E6404640E001B093141430120C002EC
:10579000401A80B2584340031189000E090A0902D9
:1057A0000143118110BD0000002200502020005054
:1057B00080E100E080E200E008E400E00023005027
:1057C000002C0050064A4108515CC207054801D030
:1057D000090901E00907090F1031C1807047000075
:1057E0008A4DFD07002C0050F8B502020546412302
:1057F000092134480A3256F7DBF9272101700446A3
:1058000000201F233049AA008F581E1A4936BE5D5A
:105810002718401C7E702028F6DB00203F238E587E
:105820001F1A4937F65D27182037401C7E70202844
:10583000F5DB57F7CFFA0146601C57F748FF002801
:1058400012D10A2000906A46052128464EF73CFAFC
:1058500028464FF721FA009960221143CAB2014647
:10586000012328464EF79AF9204656F7BAF9F8BDB3
:1058700070B505460446008914490C3488B0884246
:105880001AD100201F216E460A1AA25C3254401C15
:105890002028F9DB20223146204658F707FC00205B
:1058A0003F210A1AA25C3254401C2028F9DB202236
:1058B0006946A01858F7FAFB284645F716FD08B0C8
:1058C00070BD0000270D00002C7EFD072620000083
:1058D000064C0125064E05E0E36807CC2B430C3C43
:1058E00098471034B442F7D3FAF716FEDC64FC078D
:1058F0000C65FC0702E008C8121F08C1002AFAD193
:1059000070477047002001E001C1121F002AFBD13F
:105910007047F401030070CAEA80D0070640643281
:10592000F11CFC07691DFC074BD3F007A9D3F00756
:10593000B1D3F00701D4F00719D4F0072FD4F00742
:1059400051D4F007E1D7F00781DAF007C1D8F007AA
:10595000E1D8F00701D9F0073FD9F0074FD9F00798
:10596000FBEEF007D5ECF007F3ECF0070FEDF007D6
:1059700029EDF0073DEDF007BFEDF007D7EDF0079B
:105980003FBEF10749C0F10773AFF007C506FC073A
:105990007B07FC077707FC077307FC07ED21F0077F
:1059A000750AFC071D18FC071F0DFC07DD0CFC0722
:1059B000E50CFC07FF75F007C974F0076B75F0077D
:1059C0007190F1071F40F107212CFC078D2CFC077B
:1059D0000B2DFC07352DFC07AD2DFC07DD2DFC073D
:1059E000000000006F0AFC07710AFC0757BBF007B4
:1059F0000986F107394BFC07778FF1075F8EF107B6
:105A0000654EFC075366F1077F17F10773F9F0073E
:105A1000450AFC07D599F0079F44FC07EBB2F00755
:105A20009545FC07DB45FC079540FC07532EF00726
:105A30005B78F0072577F007F535F00700000000E8
:105A40005F0AFC07670AFC07470AFC0795D5F007C1
:105A50008BD6F007D7D6F0078FB5F1072FB6F10731
:105A6000730AFC07000000000000000000000000B6
:105A70000000000000000000000000000000000026
:105A80000000000000000000000000000000000016
:105A90000000000000000000000000000000000006
:105AA0000000000005000000586BFC070004000027
:105AB000AC51FD0768020000A04DFD070004000086
:105AC0002054FD07700500002003000000A60E0012
:105AD00004000000D2000000320000003C00000082
:105AE00001000000010000000200000002000000B0
:105AF0000400000003000000060000000000000099
:105B00000200000002000000000000000000000091
:105B10000300000003000000050000000500000075
:105B2000060000000A0000000A000000C800000093
:105B3000B80B000002000000B80B0000B80B00001A
:105B400010000000D4010000E50100007002000018
:105B50006A000000040000000100000020000000B6
:105B6000504600030003983A6400F401B80BB80BE8
:105B7000B80B000CB80B120030003000CD009A01B9
:105B80001200240030006400B00018002800120049
:105B90001200D0070000FFFF000000006400C800F2
:105BA0000000D00700024441313435383500000090
:105BB00000000000000000000000FF003F00FF03A5
:105BC000FF010000010001010028000001000000A9
:105BD0000000000003280000010000000200000097
:105BE000292A000001000000808000000328000036
:105BF0000100000004000000242A00000100000051
:105C00008080000003280000010000000600000062
:105C1000252A000001000000808000000328000009
:105C20000100000008000000272A00000100000019
:105C30008080000003280000010000000A0000002E
:105C4000262A0000010000008080000003280000D8
:105C5000010000000C000000282A000001000000E4
:105C60008080000003280000010000000E000000FA
:105C7000232A000001000000088000000328000023
:105C800001000000100000002A2A000001000000AE
:105C9000088000000328000001000000120000003E
:105CA000502A000001000000078000005B21FC0773
:105CB000E921FC070D22FC070F22FC07001400005D
:105CC000B122FC07130C00004F23FC070314000053
:105CD0000924FC07BC5CFC07030000008924FC07C6
:105CE0004725FC076F25FC07AF25FC07130C0000B8
:105CF0004929FC07150C00002F2AFC07170C00008F
:105D00005D2BFC07000C00002128FC0706FD0000AD
:105D10005528FC0703FD00003528FC0708FD00009E
:105D2000B128FC070EFD00000D29FC0705FD000051
:105D30009F2BFC07EC5CFC070900000000004C04F2
:105D40004C0407010001020304050600FF000000E7
:105D50000000000000000000140000007F35FC0778
:105D600000000000FF000000000000000000000034
:105D700000000000FC5DFC07D04CFD0704000100A2
:105D8000000000000000000000000000010D000005
:105D9000F932FC07000D00002133FC07000E000063
:105DA000DB33FC07010E00007933FC07030E000013
:105DB000F333FC070A0E00002334FC070C0E00002E
:105DC000C934FC071C0D0000FD34FC07100D000059
:105DD000C534FC070F0E00002135FC072C0E000017
:105DE0004735FC07120C00004B35FC07080E00007D
:105DF0004F35FC07FFFF00009936FC07F45DFC07F8
:105E00000100000002140000B935FC075335FC07FF
:105E10008537FC072D36FC078139FC07FD000000A3
:105E2000645FFC07300000004339FC0700000000FD
:105E30000000000000000000FF0000000000000063
:105E40000000000000000000000000000000000052
:105E500000000000595A08E4862A9E8FE911BC7C94
:105E60009843421820EE8D0CE1F04A0CB325DC5328
:105E70006A68862D4F43313C939242E6A876FA3BFE
:105E8000EFB4875A17B967984C664C01963331B115
:105E9000915900152368EC521E6244749A1BD18BF1
:105EA000AB75B66E9EE7BA08B9A948ABA1AC031CA6
:105EB0002E0D296C28D5E1C1E1C54729B55765C329
:105EC000BA47159E8C09E0D1815442408E4FD2B31F
:105ED00077E32A77595A08E4862A9E8FE911BC7C19
:105EE0007C46421820EE8D0CE1F04A0CB325DC53C1
:105EF0006A68862C4F43313C939242E6A876FA3B7F
:105F0000EFB48759595A08E4862A9E08E911BC7CE7
:105F1000D047421817B967984C664C01963331B197
:105F2000915900142368EC521E6244749A1BD18B61
:105F3000AB75B66D28D5E1C1E1C54729B55765C335
